:100000000C9462000C948A000C948A000C948A0070
:100010000C948A000C948A000C948A000C948A0038
:100020000C948A000C948A000C948A000C948A0028
:100030000C948A000C948A000C948A000C948A0018
:100040000C94DB000C948A000C9417020C94480268
:100050000C948A000C948A000C948A000C948A00F8
:100060000C948A000C948A000000000024002700F1
:100070002A0000000000250028002B0000000000DE
:1000800023002600290004040404040404040202DA
:100090000202020203030303030301020408102007
:1000A0004080010204081020010204081020000012
:1000B0000007000201000003040600000000000029
:1000C00000000D0311241FBECFEFD8E0DEBFCDBF6F
:1000D00011E0A0E0B1E0E8EAF7E002C005900D927F
:1000E000A031B107D9F711E0A0E1B1E001C01D9244
:1000F000A03CB107E1F710E0C4ECD0E004C02297C7
:10010000FE010E94CE03C23CD107C9F70E944A03F8
:100110000C94D2030C94000081EA91E040E855E28F
:1001200060E070E00E948F0289E060E00E94B7000A
:100130008AE060E00E94B7008BE060E00E94B700B8
:1001400081E061E00E94B70082E061E00E94B700B8
:1001500083E061E00E94B70084E061E00E94B700A4
:10016000089581EA91E06FEF0E94C301089590E045
:10017000FC01E656FF4F2491FC01EA57FF4FE49142
:10018000EE23C1F0F0E0EE0FFF1FE859FF4F85911D
:100190009491DC01662341F49FB7F8948C912095EB
:1001A00082238C939FBF08959FB7F8948C91822BE4
:1001B0008C939FBF08951F920F920FB60F92112438
:1001C0002F933F938F939F93AF93BF93809114018D
:1001D00090911501A0911601B0911701309118016D
:1001E0000196A11DB11D232F2D5F2D3720F02D5716
:1001F0000196A11DB11D20931801809314019093C5
:100200001501A0931601B0931701809110019091F0
:100210001101A0911201B09113010196A11DB11D10
:100220008093100190931101A0931201B0931301D8
:10023000BF91AF919F918F913F912F910F900FBEE2
:100240000F901F901895789484B5826084BD84B512
:10025000816084BD85B5826085BD85B5816085BDC1
:10026000EEE6F0E0808181608083E1E8F0E01082DA
:10027000808182608083808181608083E0E8F0E01B
:10028000808181608083E1EBF0E080818460808305
:10029000E0EBF0E0808181608083EAE7F0E080813C
:1002A000846080838081826080838081816080839C
:1002B0008081806880831092C1000895FC0184854C
:1002C0009585FC01E05CFF4F208131818E5B9F4F63
:1002D000FC0180819181281B390B2F733070C9017B
:1002E0000895FC0184859585FC01E05CFF4F408109
:1002F0005181FC01EE5BFF4F208131814217530792
:1003000041F00190F081E02DE80FF91F208130E0ED
:1003100002C02FEF3FEFC9010895FC018485958548
:10032000FC01E05CFF4F40815181FC01EE5BFF4F1F
:10033000208131814217530771F0A081B181A80F4C
:10034000B91F2C918081918101968F739070918358
:10035000808330E002C02FEF3FEFC9010895DC0138
:100360001E968D919C911F97FC01E05CFF4F8E5B68
:100370009F4F40815181DC012D913C911197421793
:100380005307B9F708951F93FC01162F268537856B
:10039000D901A05CBF4F8D919C91019660E470E003
:1003A0000E948303D901AE5BBF4F4D915C911197C1
:1003B00084179507D1F3D901A05CBF4F0D90BC9174
:1003C000A02DA20FB31F1C93A685B785A05CBF4FBD
:1003D00011969C938E93A689B7892C9181E090E029
:1003E000058C02C0880F991F0A94E2F7282B2C93E2
:1003F00081E090E01F910895FB01E05CFF4F2081B8
:1004000031812F5F3F4F2F733070DB01AE5BBF4FE9
:100410004D915C9111972417350739F0A081B18176
:10042000A60FB71F8C9331832083089508951F92E0
:100430000F920FB60F9211242F933F934F935F9318
:100440006F937F938F939F93AF93BF93EF93FF939C
:100450008091C60069E171E00E94FC01FF91EF917B
:10046000BF91AF919F918F917F916F915F914F91CC
:100470003F912F910F900FBE0F901F90189581EA1A
:1004800091E00E945E01009711F00E94160208950B
:100490001F920F920FB60F9211242F933F935F93E9
:1004A0006F937F938F939F93AF93BF93EF93FF933C
:1004B00020919D0130919E0180919F019091A0011A
:1004C0002817390731F48091C1008F7D8093C100D6
:1004D00016C0E0919F01F091A001E35AFE4F2081E8
:1004E00080919F019091A001019660E470E00E94CC
:1004F00083039093A00180939F012093C600FF91F6
:10050000EF91BF91AF919F918F917F916F915F918B
:100510003F912F910F900FBE0F901F901895DF9273
:10052000EF92FF920F931F93CF93DF93EC017A0129
:100530008B01DD24D394403081EE580780E06807BA
:1005400080E0780749F4DD24EC89FD89108260E8B9
:1005500074E88EE190E00FC0EC89FD8981E090E0C5
:100560000E8C02C0880F991F0A94E2F7808360E026
:1005700079E08DE390E0A80197010E949603215055
:10058000304040405040569547953795279580E13B
:100590002030380710F0DD20B1F6E889F989308382
:1005A000EA89FB892083EE89FF89408181E090E020
:1005B0009C010A8C02C0220F331F0A94E2F7422BDF
:1005C0004083EE89FF8940819C010B8C02C0220F81
:1005D000331F0A94E2F7422B4083EE89FF89408162
:1005E0009C010C8C02C0220F331F0A94E2F7422BAD
:1005F0004083EE89FF8920810D8C02C0880F991FEE
:100600000A94E2F7809582238083DF91CF911F9136
:100610000F91FF90EF90DF9008951092A401109237
:10062000A30188EE93E0A0E0B0E08093A501909351
:10063000A601A093A701B093A801E3EAF1E084E04A
:1006400091E09293829389E191E0958784878DE58B
:1006500091E09787868785EC90E0918B808B84EC86
:1006600090E0938B828B80EC90E0958B848B81EC77
:1006700090E0978B868B86EC90E0918F808F84E062
:10068000828F83E0838F87E0848F85E0858F81E090
:10069000868F0895CF93DF930E9423010E948C00E0
:1006A000CFE3D2E00E94B1002097E1F30E943F0225
:1006B000F9CFCF92DF92EF92FF920F931F93CF93D8
:1006C000DF936C017B018A01C0E0D0E00FC0D7014D
:1006D0006D917D01D601ED91FC910190F081E02DAD
:1006E000C6010995C80FD91F015010400115110509
:1006F00071F7CE01DF91CF911F910F91FF90EF9095
:10070000DF90CF90089597FB092E07260AD077FD3A
:1007100004D02ED006D000201AF4709561957F4F3A
:100720000895F6F7909581959F4F0895A1E21A2EAE
:10073000AA1BBB1BFD010DC0AA1FBB1FEE1FFF1F85
:10074000A217B307E407F50720F0A21BB30BE40BD5
:10075000F50B661F771F881F991F1A9469F760951C
:100760007095809590959B01AC01BD01CF010895D6
:10077000AA1BBB1B51E107C0AA1FBB1FA617B707C7
:1007800010F0A61BB70B881F991F5A95A9F78095E3
:100790009095BC01CD010895EE0FFF1F0590F491D7
:0807A000E02D0994F894FFCF4D
:1007A80000000000C30159035E018D017101AF0112
:00000001FF
