:100000000C9462000C948A000C948A000C948A0070
:100010000C948A000C948A000C948A000C948A0038
:100020000C948A000C948A000C948A000C948A0028
:100030000C948A000C948A000C948A000C948A0018
:100040000C9435040C948A000C94F3020C94240351
:100050000C948A000C948A000C948A000C948A00F8
:100060000C948A000C948A000000000024002700F1
:100070002A0000000000250028002B0000000000DE
:1000800023002600290004040404040404040202DA
:100090000202020203030303030301020408102007
:1000A0004080010204081020010204081020000012
:1000B0000007000201000003040600000000000029
:1000C0000000E90311241FBECFEFD8E0DEBFCDBF93
:1000D00011E0A0E0B1E0E6E6FAE002C005900D9282
:1000E000A031B107D9F711E0A0E1B1E001C01D9244
:1000F000A93CB107E1F710E0C4ECD0E004C02297BE
:10010000FE010E942D05C23CD107C9F70E942604BA
:100110000C9431050C94000081EA91E040E855E22E
:1001200060E070E00E946B0389E060E00E94B4012F
:100130008AE060E00E94B4018BE060E00E94B401BC
:1001400081E061E00E94B40182E061E00E94B401BC
:1001500083E061E00E94B40184E061E00E94B401A8
:100160000895EF92FF920F931F93CF93DF9389E04F
:100170000E9410027C018AE00E9410028C018BE038
:100180000E941002EC0180911001909111010097E2
:1001900011F581E0E816F104F1F4809112018F5F0E
:1001A00080931201F0921101E092100181EA91E036
:1001B00062E70E949F0281EA91E061E00E949F0253
:1001C00081EA91E0609112010E949F0281EA91E030
:1001D0006FEF0E949F02809113019091140100978C
:1001E00009F501301105F1F4809115018F5F8093BD
:1001F0001501109314010093130181EA91E062E765
:100200000E949F0281EA91E061E00E949F0281EAE0
:1002100091E0609115010E949F0281EA91E06FEFE9
:100220000E949F028091160190911701009709F595
:10023000C130D105F1F4809118018F5F80931801CE
:10024000D0931701C093160181EA91E062E70E9402
:100250009F0281EA91E061E00E949F0281EA91E0C1
:10026000609118010E949F0281EA91E06FEF0E9465
:100270009F02DF91CF911F910F91FF90EF90089512
:10028000FF920F931F9381EA91E00E943A0284301B
:100290009105A4F181EA91E00E946902F82E81EAB9
:1002A00091E00E946902182F81EA91E00E946902A0
:1002B000082F81EA91E00E9469029F2D943511F088
:1002C0008F3FE1F4113049F0123051F0133059F002
:1002D0001430A1F484E090E008C081E090E005C013
:1002E00082E090E002C083E090E0002311F460E03F
:1002F00003C0013019F461E00E94D8011F910F91F1
:10030000FF9008950E9440010E94B100089583303B
:1003100071F0843028F48130A1F0823021F514C0CE
:100320008630B1F08730D1F08430E9F404C0809198
:1003300080008F7703C0809180008F7D8093800044
:10034000089584B58F7702C084B58F7D84BD0895EC
:100350008091B0008F778093B00008958091B000B5
:100360008F7D8093B000089590E0FC01E656FF4F2A
:100370002491FC01EA57FF4FE491EE23C1F0F0E035
:10038000EE0FFF1FE859FF4F85919491DC01662322
:1003900041F49FB7F8948C91209582238C939FBF52
:1003A00008959FB7F8948C91822B8C939FBF0895EA
:1003B0000F931F93DF93CF930F92CDB7DEB7282F04
:1003C00030E0F901E255FF4F8491F901E656FF4F05
:1003D00014912A573F4FF90104910023D9F0882343
:1003E00021F069830E9487016981E02FF0E0EE0F20
:1003F000FF1FEE58FF4F85919491DC019FB7F89451
:10040000662321F48C911095812302C08C91812B5D
:100410008C939FBF0F90CF91DF911F910F91089503
:100420000F931F93282F30E0F901E255FF4F84917D
:10043000F901E656FF4F04912A573F4FF9011491F5
:10044000112391F0882311F00E948701E12FF0E041
:10045000EE0FFF1FE458FF4F85919491DC018C91C2
:10046000802321E030E011F420E030E0C9011F9149
:100470000F910895FC0184859585FC01E05CFF4F98
:10048000208131818E5B9F4FFC0180819181281BEF
:10049000390B2F733070C9010895FC01848595854F
:1004A000FC01E05CFF4F40815181FC01EE5BFF4F9E
:1004B000208131814217530741F00190F081E02DF6
:1004C000E80FF91F208130E002C02FEF3FEFC90194
:1004D0000895FC0184859585FC01E05CFF4F408117
:1004E0005181FC01EE5BFF4F2081318142175307A0
:1004F00071F0A081B181A80FB91F2C9180819181E9
:1005000001968F7390709183808330E002C02FEF4B
:100510003FEFC9010895DC011E968D919C911F97B4
:10052000FC01E05CFF4F8E5B9F4F40815181DC01FD
:100530002D913C91119742175307B9F708951F93D6
:10054000FC01162F26853785D901A05CBF4F8D9100
:100550009C91019660E470E00E94E204D901AE5BD8
:10056000BF4F4D915C91119784179507D1F3D90135
:10057000A05CBF4F0D90BC91A02DA20FB31F1C9388
:10058000A685B785A05CBF4F11969C938E93A689D4
:10059000B7892C9181E090E0058C02C0880F991FEB
:1005A0000A94E2F7282B2C9381E090E01F910895A4
:1005B000FB01E05CFF4F208131812F5F3F4F2F73A4
:1005C0003070DB01AE5BBF4F4D915C9111972417EA
:1005D000350739F0A081B181A60FB71F8C93318305
:1005E0002083089508951F920F920FB60F92112441
:1005F0002F933F934F935F936F937F938F939F932B
:10060000AF93BF93EF93FF938091C60069E171E0D0
:100610000E94D802FF91EF91BF91AF919F918F916E
:100620007F916F915F914F913F912F910F900FBEEE
:100630000F901F90189581EA91E00E943A0200976E
:1006400011F00E94F20208951F920F920FB60F92BE
:1006500011242F933F935F936F937F938F939F9377
:10066000AF93BF93EF93FF9320919D0130919E0133
:1006700080919F019091A0012817390731F4809152
:10068000C1008F7D8093C10016C0E0919F01F09161
:10069000A001E35AFE4F208180919F019091A0011B
:1006A000019660E470E00E94E2049093A0018093C0
:1006B0009F012093C600FF91EF91BF91AF919F9151
:1006C0008F917F916F915F913F912F910F900FBE0E
:1006D0000F901F901895DF92EF92FF920F931F9348
:1006E000CF93DF93EC017A018B01DD24D39440306A
:1006F00081EE580780E0680780E0780749F4DD2440
:10070000EC89FD89108260E874E88EE190E00FC00A
:10071000EC89FD8981E090E00E8C02C0880F991F62
:100720000A94E2F7808360E079E08DE390E0A8012D
:1007300097010E94F50421503040404050405695AA
:1007400047953795279580E12030380710F0DD2058
:10075000B1F6E889F9893083EA89FB892083EE893B
:10076000FF89408181E090E09C010A8C02C0220F49
:10077000331F0A94E2F7422B4083EE89FF894081C0
:100780009C010B8C02C0220F331F0A94E2F7422B0C
:100790004083EE89FF8940819C010C8C02C0220FAE
:1007A000331F0A94E2F7422B4083EE89FF892081B0
:1007B0000D8C02C0880F991F0A94E2F7809582235E
:1007C0008083DF91CF911F910F91FF90EF90DF9089
:1007D00008951092A4011092A30188EE93E0A0E086
:1007E000B0E08093A5019093A601A093A701B093D8
:1007F000A801E3EAF1E084E091E09293829389E139
:1008000091E0958784878DE591E09787868785ECD1
:1008100090E0918B808B84EC90E0938B828B80ECCA
:1008200090E0958B848B81EC90E0978B868B86ECA7
:1008300090E0918F808F84E0828F83E0838F87E0C8
:10084000848F85E0858F81E0868F0895CF93DF9335
:100850000E947D040E948C00CBE1D3E00E948201C3
:100860002097E1F30E941B03F9CF1F920F920FB65E
:100870000F9211242F933F938F939F93AF93BF9326
:100880008091C4019091C501A091C601B091C701AA
:100890003091C8010196A11DB11D232F2D5F2D3769
:1008A00020F02D570196A11DB11D2093C801809302
:1008B000C4019093C501A093C601B093C701809174
:1008C000C0019091C101A091C201B091C3010196F4
:1008D000A11DB11D8093C0019093C101A093C201DD
:1008E000B093C301BF91AF919F918F913F912F9191
:1008F0000F900FBE0F901F901895789484B582606A
:1009000084BD84B5816084BD85B5826085BD85B5B3
:10091000816085BDEEE6F0E0808181608083E1E862
:10092000F0E010828081826080838081816080839A
:10093000E0E8F0E0808181608083E1EBF0E080819D
:1009400084608083E0EBF0E0808181608083EAE76F
:10095000F0E08081846080838081826080838081F8
:10096000816080838081806880831092C1000895B7
:10097000CF92DF92EF92FF920F931F93CF93DF936B
:100980006C017B018A01C0E0D0E00FC0D7016D91FE
:100990007D01D601ED91FC910190F081E02DC60121
:1009A0000995C80FD91F015010400115110571F7A5
:1009B000CE01DF91CF911F910F91FF90EF90DF90CB
:1009C000CF90089597FB092E07260AD077FD04D013
:1009D0002ED006D000201AF4709561957F4F0895AF
:1009E000F6F7909581959F4F0895A1E21A2EAA1BC4
:1009F000BB1BFD010DC0AA1FBB1FEE1FFF1FA217CF
:100A0000B307E407F50720F0A21BB30BE40BF50BCB
:100A1000661F771F881F991F1A9469F76095709554
:100A2000809590959B01AC01BD01CF010895AA1B53
:100A3000BB1B51E107C0AA1FBB1FA617B70710F0C9
:100A4000A61BB70B881F991F5A95A9F780959095FB
:100A5000BC01CD010895EE0FFF1F0590F491E02D2C
:060A60000994F894FFCF99
:100A6600000000009F02B8043A0269024D028B02A0
:00000001FF
