:100000000C9462000C948A000C948A000C948A0070
:100010000C948A000C948A000C948A000C948A0038
:100020000C948A000C948A000C948A000C948A0028
:100030000C948A000C948A000C948A000C948A0018
:100040000C9446020C948A000C94CF030C94000488
:100050000C948A000C948A000C948A000C948A00F8
:100060000C948A000C948A000000000024002700F1
:100070002A0000000000250028002B0000000000DE
:1000800023002600290004040404040404040202DA
:100090000202020203030303030301020408102007
:1000A0004080010204081020010204081020000012
:1000B0000007000201000003040600000000000029
:1000C0000000C50411241FBECFEFD8E0DEBFCDBFB6
:1000D00011E0A0E0B1E0E8E1FBE002C005900D9284
:1000E000A031B107D9F711E0A0E1B1E001C01D9244
:1000F000A93CB107E1F710E0C4ECD0E004C02297BE
:10010000FE010E948605C23CD107C9F70E94020584
:100110000C948A050C9400008AEA91E040E855E2CC
:1001200060E070E00E94470489E060E00E94C00146
:100130008AE060E00E94C0018BE060E00E94C001A4
:1001400081E061E00E94C00182E061E00E94C001A4
:1001500083E061E00E94C00184E061E00E94C00190
:100160000895EF92FF920F931F93CF93DF9389E04F
:100170000E941C027C018AE00E941C028C018BE020
:100180000E941C02EC0180911001909111010097D6
:1001900011F581E0E816F104F1F4809112018F5F0E
:1001A00080931201F0921101E09210018AEA91E02D
:1001B00062E70E947B038AEA91E061E00E947B0390
:1001C0008AEA91E0609112010E947B038AEA91E041
:1001D0006FEF0E947B0380911301909114010097AF
:1001E00009F501301105F1F4809115018F5F8093BD
:1001F000150110931401009313018AEA91E062E75C
:100200000E947B038AEA91E061E00E947B038AEA14
:1002100091E0609115010E947B038AEA91E06FEF03
:100220000E947B038091160190911701009709F5B8
:10023000C130D105F1F4809118018F5F80931801CE
:10024000D0931701C09316018AEA91E062E70E94F9
:100250007B038AEA91E061E00E947B038AEA91E0F5
:10026000609118010E947B038AEA91E06FEF0E947F
:100270007B03DF91CF911F910F91FF90EF90089535
:100280000F931F9340C08AEA91E00E944503843592
:10029000D1F506C061E070E080E090E00E94B40219
:1002A0008AEA91E00E941603833091059CF38AEA62
:1002B00091E00E944503182F8AEA91E00E944503CD
:1002C000082F8AEA91E00E9445038F3F21F5113003
:1002D00049F0123051F0133059F01430A1F484E099
:1002E00090E008C081E090E005C082E090E002C0AC
:1002F00083E090E0002311F460E003C0013019F4C2
:1003000061E00E94E4018AEA91E00E941603181657
:1003100019060CF4B8CF1F910F9108950E94400167
:100320000E94B1000895833071F0843028F4813048
:10033000A1F0823021F514C08630B1F08730D1F0C1
:100340008430E9F404C0809180008F7703C08091ED
:1003500080008F7D80938000089584B58F7702C0E0
:1003600084B58F7D84BD08958091B0008F77809390
:10037000B00008958091B0008F7D8093B000089503
:1003800090E0FC01E656FF4F2491FC01EA57FF4F35
:10039000E491EE23C1F0F0E0EE0FFF1FE859FF4FAC
:1003A00085919491DC01662341F49FB7F8948C9178
:1003B000209582238C939FBF08959FB7F8948C91CA
:1003C000822B8C939FBF08950F931F93DF93CF933E
:1003D0000F92CDB7DEB7282F30E0F901E255FF4F7D
:1003E0008491F901E656FF4F14912A573F4FF901C6
:1003F00004910023D9F0882321F069830E9493019E
:100400006981E02FF0E0EE0FFF1FEE58FF4F85915E
:100410009491DC019FB7F894662321F48C91109598
:10042000812302C08C91812B8C939FBF0F90CF9121
:10043000DF911F910F9108950F931F93282F30E0A4
:10044000F901E255FF4F8491F901E656FF4F0491FF
:100450002A573F4FF9011491112391F0882311F08D
:100460000E949301E12FF0E0EE0FFF1FE458FF4FD1
:1004700085919491DC018C91802321E030E011F48E
:1004800020E030E0C9011F910F9108951F920F9253
:100490000FB60F9211242F933F938F939F93AF9397
:1004A000BF9380911D0190911E01A0911F01B091F9
:1004B0002001309121010196A11DB11D232F2D5F37
:1004C0002D3720F02D570196A11DB11D209321013C
:1004D00080931D0190931E01A0931F01B0932001F2
:1004E0008091190190911A01A0911B01B0911C01FA
:1004F0000196A11DB11D8093190190931A01A0933B
:100500001B01B0931C01BF91AF919F918F913F91BF
:100510002F910F900FBE0F901F9018959FB7F894D2
:100520002091190130911A0140911B0150911C0139
:1005300086B5A89B06C08F3F21F02F5F3F4F4F4FDE
:100540005F4F9FBF542F432F322F2227280F311D7B
:10055000411D511D82E0220F331F441F551F8A95F4
:10056000D1F7B901CA010895EF92FF920F931F933B
:10057000CF93DF937B018C010E948E02EB010FC0B1
:100580000E948E026C1B7D0B83E0683E780738F07A
:100590000894E108F10801091109C851DC4FE11480
:1005A000F1040105110561F7DF91CF911F910F91C2
:1005B000FF90EF900895789484B5826084BD84B5EF
:1005C000816084BD85B5826085BD85B5816085BD4E
:1005D000EEE6F0E0808181608083E1E8F0E0108267
:1005E000808182608083808181608083E0E8F0E0A8
:1005F000808181608083E1EBF0E080818460808392
:10060000E0EBF0E0808181608083EAE7F0E08081C8
:100610008460808380818260808380818160808328
:100620008081806880831092C1000895FC018485D8
:100630009585FC01E05CFF4F208131818E5B9F4FEF
:10064000FC0180819181281B390B2F733070C90107
:100650000895FC0184859585FC01E05CFF4F408195
:100660005181FC01EE5BFF4F20813181421753071E
:1006700041F00190F081E02DE80FF91F208130E07A
:1006800002C02FEF3FEFC9010895FC0184859585D5
:10069000FC01E05CFF4F40815181FC01EE5BFF4FAC
:1006A000208131814217530771F0A081B181A80FD9
:1006B000B91F2C918081918101968F7390709183E5
:1006C000808330E002C02FEF3FEFC9010895DC01C5
:1006D0001E968D919C911F97FC01E05CFF4F8E5BF5
:1006E0009F4F40815181DC012D913C911197421720
:1006F0005307B9F708951F93FC01162F26853785F8
:10070000D901A05CBF4F8D919C91019660E470E08F
:100710000E943B05D901AE5BBF4F4D915C91119793
:1007200084179507D1F3D901A05CBF4F0D90BC9100
:10073000A02DA20FB31F1C93A685B785A05CBF4F49
:1007400011969C938E93A689B7892C9181E090E0B5
:10075000058C02C0880F991F0A94E2F7282B2C936E
:1007600081E090E01F910895FB01E05CFF4F208144
:1007700031812F5F3F4F2F733070DB01AE5BBF4F76
:100780004D915C9111972417350739F0A081B18103
:10079000A60FB71F8C9331832083089508951F926D
:1007A0000F920FB60F9211242F933F934F935F93A5
:1007B0006F937F938F939F93AF93BF93EF93FF9329
:1007C0008091C60062E271E00E94B403FF91EF9154
:1007D000BF91AF919F918F917F916F915F914F9159
:1007E0003F912F910F900FBE0F901F9018958AEA9E
:1007F00091E00E941603009711F00E94CE03089525
:100800001F920F920FB60F9211242F933F935F9375
:100810006F937F938F939F93AF93BF93EF93FF93C8
:100820002091A6013091A7018091A8019091A90182
:100830002817390731F48091C1008F7D8093C10062
:1008400016C0E091A801F091A901EA59FE4F20815C
:100850008091A8019091A901019660E470E00E9446
:100860003B059093A9018093A8012093C600FF91B6
:10087000EF91BF91AF919F918F917F916F915F9118
:100880003F912F910F900FBE0F901F901895DF9200
:10089000EF92FF920F931F93CF93DF93EC017A01B6
:1008A0008B01DD24D394403081EE580780E0680747
:1008B00080E0780749F4DD24EC89FD89108260E846
:1008C00074E88EE190E00FC0EC89FD8981E090E052
:1008D0000E8C02C0880F991F0A94E2F7808360E0B3
:1008E00079E08DE390E0A80197010E944E05215028
:1008F000304040405040569547953795279580E1C8
:100900002030380710F0DD20B1F6E889F98930830E
:10091000EA89FB892083EE89FF89408181E090E0AC
:100920009C010A8C02C0220F331F0A94E2F7422B6B
:100930004083EE89FF8940819C010B8C02C0220F0D
:10094000331F0A94E2F7422B4083EE89FF894081EE
:100950009C010C8C02C0220F331F0A94E2F7422B39
:100960004083EE89FF8920810D8C02C0880F991F7A
:100970000A94E2F7809582238083DF91CF911F91C3
:100980000F91FF90EF90DF9008951092AD011092BB
:10099000AC0188EE93E0A0E0B0E08093AE019093CC
:1009A000AF01A093B001B093B101ECEAF1E084E0B3
:1009B00091E09293829382E291E09587848786E624
:1009C00091E09787868785EC90E0918B808B84EC13
:1009D00090E0938B828B80EC90E0958B848B81EC04
:1009E00090E0978B868B86EC90E0918F808F84E0EF
:1009F000828F83E0838F87E0848F85E0858F81E01D
:100A0000868F0895CF93DF930E94DB020E948C00B3
:100A1000C7EFD3E00E948E012097E1F30E94F70315
:100A2000F9CFCF92DF92EF92FF920F931F93CF9364
:100A3000DF936C017B018A01C0E0D0E00FC0D701D9
:100A40006D917D01D601ED91FC910190F081E02D39
:100A5000C6010995C80FD91F015010400115110595
:100A600071F7CE01DF91CF911F910F91FF90EF9021
:100A7000DF90CF90089597FB092E07260AD077FDC7
:100A800004D02ED006D000201AF4709561957F4FC7
:100A90000895F6F7909581959F4F0895A1E21A2E3B
:100AA000AA1BBB1BFD010DC0AA1FBB1FEE1FFF1F12
:100AB000A217B307E407F50720F0A21BB30BE40B62
:100AC000F50B661F771F881F991F1A9469F76095A9
:100AD0007095809590959B01AC01BD01CF01089563
:100AE000AA1BBB1B51E107C0AA1FBB1FA617B70754
:100AF00010F0A61BB70B881F991F5A95A9F7809570
:100B00009095BC01CD010895EE0FFF1F0590F49163
:080B1000E02D0994F894FFCFD9
:100B1800000000007B031105160345032903670342
:00000001FF
