:100000000C9462000C948A000C948A000C948A0070
:100010000C948A000C948A000C948A000C948A0038
:100020000C948A000C948A000C948A000C948A0028
:100030000C948A000C948A000C948A000C948A0018
:100040000C9466010C948A000C94F4020C94250321
:100050000C948A000C948A000C948A000C948A00F8
:100060000C948A000C948A000000000024002700F1
:100070002A0000000000250028002B0000000000DE
:1000800023002600290004040404040404040202DA
:100090000202020203030303030301020408102007
:1000A0004080010204081020010204081020000012
:1000B0000007000201000003040600000000000029
:1000C0000000FB0311241FBECFEFD8E0DEBFCDBF81
:1000D00011E0A0E0B1E0E4E8F9E002C005900D9283
:1000E000A231B107D9F711E0A2E1B1E001C01D9240
:1000F000A43CB107E1F710E0C4ECD0E004C02297C3
:10010000FE010E94BC04C23CD107C9F70E9438041A
:100110000C94C0040C94000085EA91E040E855E29C
:1001200060E070E00E946C038AE061E00E940A01D6
:100130008AE061E00E942E0108958AE061E00E9459
:100140002E01089580910001909101018130910567
:1001500049F48AE060E00E942E01109201011092A1
:1001600000010AC08AE061E00E942E0181E090E077
:10017000909301018093000164EF71E080E090E0D2
:100180000E94D901089585EA91E00E943B02009700
:1001900041F085EA91E00E946A02909313018093F6
:1001A00012018091120190911301009719F40E949D
:1001B0009D0008950E94A2000895833071F084305C
:1001C00028F48130A1F0823021F514C08630B1F0DE
:1001D0008730D1F08430E9F404C0809180008F77BB
:1001E00003C0809180008F7D80938000089584B546
:1001F0008F7702C084B58F7D84BD08958091B00053
:100200008F778093B00008958091B0008F7D8093A8
:10021000B000089590E0FC01E656FF4F2491FC01E8
:10022000EA57FF4FE491EE23C1F0F0E0EE0FFF1F1D
:10023000E859FF4F85919491DC01662341F49FB703
:10024000F8948C91209582238C939FBF08959FB73B
:10025000F8948C91822B8C939FBF08950F931F93DA
:10026000DF93CF930F92CDB7DEB7282F30E0F9019F
:10027000E255FF4F8491F901E656FF4F14912A573A
:100280003F4FF90104910023D9F0882321F06983BD
:100290000E94DD006981E02FF0E0EE0FFF1FEE58B5
:1002A000FF4F85919491DC019FB7F894662321F468
:1002B0008C911095812302C08C91812B8C939FBFD0
:1002C0000F90CF91DF911F910F9108951F920F9280
:1002D0000FB60F9211242F933F938F939F93AF9359
:1002E000BF938091180190911901A0911A01B091CA
:1002F0001B0130911C010196A11DB11D232F235D0F
:100300002D3720F02D570196A11DB11D20931C0102
:100310008093180190931901A0931A01B0931B01C7
:100320008091140190911501A0911601B0911701CF
:100330000196A11DB11D8093140190931501A09306
:100340001601B0931701BF91AF919F918F913F918B
:100350002F910F900FBE0F901F9018953FB7F894F4
:100360008091140190911501A0911601B09117018F
:1003700026B5A89B05C02F3F19F00196A11DB11D00
:100380003FBFBA2FA92F982F8827820F911DA11D3B
:10039000B11D9C01AD0162E0220F331F441F551FA8
:1003A0006A95D1F7280F391F4A1F5B1FB901CA018F
:1003B0000895EF92FF920F931F93CF93DF937B01EA
:1003C0008C010E94AE01EB010FC00E94AE016C1BBC
:1003D0007D0B83E0683E780738F00894E108F10867
:1003E00001091109C851DC4FE114F104010511059F
:1003F00061F7DF91CF911F910F91FF90EF900895DA
:10040000789484B5826084BD84B5816084BD85B5EF
:10041000826085BD85B5816085BDEEE6F0E08081B6
:1004200081608083E1E8F0E01082808182608083D7
:10043000808181608083E0E8F0E08081816080835A
:10044000E1EBF0E0808184608083E0EBF0E080818C
:1004500081608083EAE7F0E080818460808380812E
:1004600082608083808181608083808180688083D6
:100470001092C1000895FC0184859585FC01E05C23
:10048000FF4F208131818E5B9F4FFC0180819181E4
:10049000281B390B2F733070C9010895FC01848526
:1004A0009585FC01E05CFF4F40815181FC01EE5BD2
:1004B000FF4F208131814217530741F00190F081B5
:1004C000E02DE80FF91F208130E002C02FEF3FEF51
:1004D000C9010895FC0184859585FC01E05CFF4F0E
:1004E00040815181FC01EE5BFF4F20813181421739
:1004F000530771F0A081B181A80FB91F2C918081A1
:10050000918101968F7390709183808330E002C057
:100510002FEF3FEFC9010895DC011E968D919C914C
:100520001F97FC01E05CFF4F8E5B9F4F4081518124
:10053000DC012D913C91119742175307B9F70895AB
:100540001F93FC01162F26853785D901A05CBF4F6C
:100550008D919C91019660E470E00E947104D90134
:10056000AE5BBF4F4D915C91119784179507D1F306
:10057000D901A05CBF4F0D90BC91A02DA20FB31F5D
:100580001C93A685B785A05CBF4F11969C938E9354
:10059000A689B7892C9181E090E0058C02C0880F74
:1005A000991F0A94E2F7282B2C9381E090E01F9189
:1005B0000895FB01E05CFF4F208131812F5F3F4FA9
:1005C0002F733070DB01AE5BBF4F4D915C91119783
:1005D0002417350739F0A081B181A60FB71F8C937E
:1005E00031832083089508951F920F920FB60F92C2
:1005F00011242F933F934F935F936F937F938F9328
:100600009F93AF93BF93EF93FF938091C6006DE1EB
:1006100071E00E94D902FF91EF91BF91AF919F913C
:100620008F917F916F915F914F913F912F910F909B
:100630000FBE0F901F90189585EA91E00E943B0233
:10064000009711F00E94F30208951F920F920FB6C7
:100650000F9211242F933F935F936F937F938F9308
:100660009F93AF93BF93EF93FF932091A10130919C
:10067000A2018091A3019091A4012817390731F4B8
:100680008091C1008F7D8093C10016C0E091A301CD
:10069000F091A401EF59FE4F20818091A301909128
:1006A000A401019660E470E00E9471049093A4019B
:1006B0008093A3012093C600FF91EF91BF91AF916A
:1006C0009F918F917F916F915F913F912F910F90AB
:1006D0000FBE0F901F9018959F92AF92BF92CF922E
:1006E000DF92EF92FF920F931F93CF93DF93EC0172
:1006F0007A018B0199249394EC89FD8981E090E043
:100700000E8C02C0880F991F0A94E2F7808360EC78
:1007100076EC8DE290E0A80197010E9484042150BC
:10072000304040405040569547953795279590E684
:10073000A92E93EEB92E96E1C92ED12C12C0992480
:10074000EC89FD891082C601B501A80197010E94BC
:10075000840421503040404050405695479537958D
:10076000279580E12030380710F0992041F7E8897B
:10077000F9893083EA89FB892083EE89FF894081EA
:1007800081E090E09C010A8C02C0220F331F0A9482
:10079000E2F7422B4083EE89FF8940819C010B8C5C
:1007A00002C0220F331F0A94E2F7422B4083EE89E6
:1007B000FF8940819C010C8C02C0220F331F0A94D8
:1007C000E2F7422B4083EE89FF8920810D8C02C025
:1007D000880F991F0A94E2F7809582238083DF9126
:1007E000CF911F910F91FF90EF90DF90CF90BF902E
:1007F000AF909F9008951092A8011092A70188EEE3
:1008000093E0A0E0B0E08093A9019093AA01A093A7
:10081000AB01B093AC01E7EAF1E086E091E092939E
:1008200082938DE191E09587848781E691E09787B7
:10083000868785EC90E0918B808B84EC90E0938BA5
:10084000828B80EC90E0958B848B81EC90E0978B91
:10085000868B86EC90E0918F808F84E0828F83E09E
:10086000838F87E0848F85E0858F81E0868F089570
:10087000CF93DF930E9400020E948C00CCE1D3E072
:100880000E94C3002097E1F30E941C03F9CFCF928E
:10089000DF92EF92FF920F931F93CF93DF936C0140
:1008A0007B018A01C0E0D0E00FC0D7016D917D01CE
:1008B000D601ED91FC910190F081E02DC6010995E2
:1008C000C80FD91F015010400115110571F7CE0155
:1008D000DF91CF911F910F91FF90EF90DF90CF901C
:1008E000089597FB092E07260AD077FD04D02ED055
:1008F00006D000201AF4709561957F4F0895F6F7A1
:10090000909581959F4F0895A1E21A2EAA1BBB1BBB
:10091000FD010DC0AA1FBB1FEE1FFF1FA217B307CB
:10092000E407F50720F0A21BB30BE40BF50B661FE1
:10093000771F881F991F1A9469F7609570958095A5
:1009400090959B01AC01BD01CF010895AA1BBB1B73
:1009500051E107C0AA1FBB1FA617B70710F0A61BBF
:10096000B70B881F991F5A95A9F780959095BC01E0
:10097000CD010895EE0FFF1F0590F491E02D09942D
:04098000F894FFCF19
:10098400010000000000A00247043B026A024E027C
:020994008C02D3
:00000001FF
