:100000000C9462000C948A000C948A000C948A0070
:100010000C948A000C948A000C948A000C948A0038
:100020000C948A000C948A000C948A000C948A0028
:100030000C948A000C948A000C948A000C948A0018
:100040000C9435010C948A000C9429030C945A03E7
:100050000C948A000C948A000C948A000C948A00F8
:100060000C948A000C948A000000000024002700F1
:100070002A0000000000250028002B0000000000DE
:1000800023002600290004040404040404040202DA
:100090000202020203030303030301020408102007
:1000A0004080010204081020010204081020000012
:1000B0000007000201000003040600000000000029
:1000C0000000A10311241FBECFEFD8E0DEBFCDBFDB
:1000D00011E0A0E0B1E0E8E3F8E002C005900D9285
:1000E000AE31B107D9F711E0AEE1B1E001C01D9228
:1000F000AE3CB107E1F710E0C4ECD0E004C02297B9
:10010000FE010E941604C23CD107C9F70E94DE031B
:100110000C941A040C9400008DE061E00E94D90058
:1001200008958DE061E00E94FD0068EE73E080E0DC
:1001300090E00E94A3018DE060E00E94FD0068EE67
:1001400073E080E090E00E94A3018FEA91E060E01C
:1001500071E00E945D020895833071F0843028F4CC
:100160008130A1F0823021F514C08630B1F08730A3
:10017000D1F08430E9F404C0809180008F7703C00F
:10018000809180008F7D80938000089584B58F7763
:1001900002C084B58F7D84BD08958091B0008F77B3
:1001A0008093B00008958091B0008F7D8093B0005F
:1001B000089590E0FC01E656FF4F2491FC01EA57B8
:1001C000FF4FE491EE23C1F0F0E0EE0FFF1FE8597E
:1001D000FF4F85919491DC01662341F49FB7F89419
:1001E0008C91209582238C939FBF08959FB7F8949C
:1001F0008C91822B8C939FBF08950F931F93DF9355
:10020000CF930F92CDB7DEB7282F30E0F901E2553A
:10021000FF4F8491F901E656FF4F14912A573F4F43
:10022000F90104910023D9F0882321F069830E9409
:10023000AC006981E02FF0E0EE0FFF1FEE58FF4F9A
:1002400085919491DC019FB7F894662321F48C91F9
:100250001095812302C08C91812B8C939FBF0F90AE
:10026000CF91DF911F910F9108951F920F920FB6BA
:100270000F9211242F933F938F939F93AF93BF932C
:100280008091220190912301A0912401B091250138
:10029000309126010196A11DB11D232F2D5F2D3711
:1002A00020F02D570196A11DB11D209326018093AA
:1002B000220190932301A0932401B0932501809102
:1002C0001E0190911F01A0912001B0912101019682
:1002D000A11DB11D80931E0190931F01A0932001C9
:1002E000B0932101BF91AF919F918F913F912F9139
:1002F0000F900FBE0F901F9018959FB7F894209104
:100300001E0130911F01409120015091210186B5BD
:10031000A89B06C08F3F21F02F5F3F4F4F4F5F4F8D
:100320009FBF542F432F322F2227280F311D411DED
:10033000511D82E0220F331F441F551F8A95D1F7AC
:10034000B901CA010895EF92FF920F931F93CF93C3
:10035000DF937B018C010E947D01EB010FC00E94A5
:100360007D016C1B7D0B83E0683E780738F00894B4
:10037000E108F10801091109C851DC4FE114F10449
:100380000105110561F7DF91CF911F910F91FF904A
:10039000EF900895789484B5826084BD84B58160BF
:1003A00084BD85B5826085BD85B5816085BDEEE67D
:1003B000F0E0808181608083E1E8F0E0108280815C
:1003C00082608083808181608083E0E8F0E08081CA
:1003D00081608083E1EBF0E0808184608083E0EBEA
:1003E000F0E0808181608083EAE7F0E080818460D2
:1003F000808380818260808380818160808380812E
:10040000806880831092C1000895CF92DF92EF92AE
:10041000FF920F931F93CF93DF936C017B018A01AF
:10042000C0E0D0E00FC0D7016D917D01D601ED9104
:10043000FC910190F081E02DC6010995C80FD91FEC
:10044000015010400115110571F7CE01DF91CF91D8
:100450001F910F91FF90EF90DF90CF900895DB01F7
:100460000D900020E9F7AD0141505040461B570B5D
:10047000DC01ED91FC910280F381E02D0995089556
:10048000DC01ED91FC910190F081E02D099508953A
:100490000F931F93CF93DF93EC016DE00E94400216
:1004A0008C01CE016AE00E944002080F191FC801AA
:1004B000DF91CF911F910F9108950F931F93CF93C9
:1004C000DF93EC010E942F028C01CE010E944802B2
:1004D000080F191FC801DF91CF911F910F91089547
:1004E000FC0184859585FC01E05CFF4F2081318112
:1004F0008E5B9F4FFC0180819181281B390B2F73EC
:100500003070C9010895FC0184859585FC01E05C8B
:10051000FF4F40815181FC01EE5BFF4F2081318113
:100520004217530741F00190F081E02DE80FF91FC9
:10053000208130E002C02FEF3FEFC9010895FC0198
:1005400084859585FC01E05CFF4F40815181FC0171
:10055000EE5BFF4F208131814217530771F0A0817C
:10056000B181A80FB91F2C918081918101968F7361
:1005700090709183808330E002C02FEF3FEFC9017C
:100580000895DC011E968D919C911F97FC01E05C03
:10059000FF4F8E5B9F4F40815181DC012D913C913B
:1005A000119742175307B9F708951F93FC01162FAF
:1005B00026853785D901A05CBF4F8D919C9101960E
:1005C00060E470E00E94ED03D901AE5BBF4F4D9136
:1005D0005C91119784179507D1F3D901A05CBF4FA7
:1005E0000D90BC91A02DA20FB31F1C93A685B785BB
:1005F000A05CBF4F11969C938E93A689B7892C91CE
:1006000081E090E0058C02C0880F991F0A94E2F700
:10061000282B2C9381E090E01F910895FB01E05C72
:10062000FF4F208131812F5F3F4F2F733070DB01EF
:10063000AE5BBF4F4D915C9111972417350739F090
:10064000A081B181A60FB71F8C93318320830895B9
:1006500008951F920F920FB60F9211242F933F937C
:100660004F935F936F937F938F939F93AF93BF93BA
:10067000EF93FF938091C60067E271E00E940E0342
:10068000FF91EF91BF91AF919F918F917F916F916A
:100690005F914F913F912F910F900FBE0F901F9040
:1006A00018958FEA91E00E947002009711F00E9465
:1006B000280308951F920F920FB60F9211242F93C3
:1006C0003F935F936F937F938F939F93AF93BF936A
:1006D000EF93FF932091AB013091AC018091AD017C
:1006E0009091AE012817390731F48091C1008F7DB8
:1006F0008093C10016C0E091AD01F091AE01E559C3
:10070000FE4F20818091AD019091AE01019660E491
:1007100070E00E94ED039093AE018093AD012093B1
:10072000C600FF91EF91BF91AF919F918F917F9103
:100730006F915F913F912F910F900FBE0F901F907F
:1007400018951092B2011092B10188EE93E0A0E0EA
:10075000B0E08093B3019093B401A093B501B0933E
:10076000B601E1EBF1E082E191E09293829387E2BE
:1007700091E0958784878BE691E09787868785EC63
:1007800090E0918B808B84EC90E0938B828B80EC5B
:1007900090E0958B848B81EC90E0978B868B86EC38
:1007A00090E0918F808F84E0828F83E0838F87E059
:1007B000848F85E0858F81E0868F0895CF93DF93C6
:1007C0000E94CA010E948C00C1E5D3E00E94910002
:1007D0002097E1F30E945103F9CF97FB092E0726DA
:1007E0000AD077FD04D00CD006D000201AF4709502
:1007F00061957F4F0895F6F7909581959F4F0895E5
:10080000AA1BBB1B51E107C0AA1FBB1FA617B70736
:1008100010F0A61BB70B881F991F5A95A9F7809552
:100820009095BC01CD010895EE0FFF1F0590F49146
:08083000E02D0994F894FFCFBC
:1008380048656C6C6F2C20576F726C642100000047
:0E0848000000D502050270029F028302C10269
:00000001FF
